:100000000C9434000C9449000C9449000C94490061
:100010000C9449000C9449000C9449000C9449003C
:100020000C9449000C9449000C9449000C9449002C
:100030000C9449000C9449000C9449000C9449001C
:100040000C9449000C9449000C9449000C9449000C
:100050000C9449000C9449000C9449000C944900FC
:100060000C9449000C94490011241FBECFEFD8E036
:10007000DEBFCDBF11E0A0E0B1E0E8E3F1E002C0F7
:1000800005900D92A430B107D9F70E944E000C9450
:100090009A000C94000088E68AB9089588E68AB927
:1000A00080E0C1E0D0E0E3E0F0E01BB84BB190E0CD
:1000B000DC01A050BF4F9E010C9002C0220F331FE5
:1000C0000A94E2F7242B2BB92FEF33ED40E32150B4
:1000D00030404040E1F700C000000196BF010E949F
:1000E0007200E3CF97FB072E16F4009407D077FD3C
:1000F00009D00E94860007FC05D03EF490958195BA
:100100009F4F0895709561957F4F0895AA1BBB1B63
:1001100051E107C0AA1FBB1FA617B70710F0A61B07
:10012000B70B881F991F5A95A9F780959095BC0128
:08013000CD010895F894FFCF02
:0401380005060300B5
:00000001FF
