:100000000C9434000C9448000C9446000C94460068
:100010000C9446000C9446000C9446000C94460048
:100020000C9446000C9446000C9446000C94460038
:100030000C9446000C9446000C9446000C94460028
:100040000C9446000C9446000C9446000C94460018
:100050000C9446000C9446000C9446000C94460008
:100060000C9446000C94460011241FBECFEFD8E03C
:10007000DEBFCDBF21E0A0E0B1E001C01D92A13004
:10008000B207E1F70E9457000C947B000C9400002B
:100090001F920F920FB60F9211248F9381E08093DD
:1000A00000018F910F900FBE0F901F90189581E067
:1000B00084B952985A9A809169008260809369004D
:1000C000809169008E7F80936900E89A789491E02E
:1000D000809100018823E1F385B1892785B92FEF4D
:1000E00032E587E0215030408040E1F700C0000059
:0A00F00010920001EDCFF894FFCF4D
:00000001FF
