:100000000C9434000C9451000C9451000C94510049
:100010000C9451000C9451000C9451000C9451001C
:100020000C9451000C9451000C9451000C9451000C
:100030000C9451000C9451000C9453000C945100FA
:100040000C9451000C9451000C9451000C945100EC
:100050000C9451000C9451000C9451000C945100DC
:100060000C9451000C94510011241FBECFEFD8E026
:10007000DEBFCDBF11E0A0E0B1E0EAE2F1E002C0F6
:1000800005900D92A230B107D9F721E0A2E0B1E0CE
:1000900001C01D92A330B207E1F70E948C000C94BE
:1000A00093000C9400001F920F920FB60F92112430
:1000B0008F939F939091000180910201890F80930B
:1000C0000201809102018F3F21F080910201811194
:1000D00005C080910001819580930001809102010B
:1000E00090E090938900809388009F918F910F906A
:1000F0000FBE0F901F90189582E084BD94E095BDCF
:100100009CE797BD80936E00089581E880938000FE
:1001100081E08093810008950E947C000E94850008
:0A012000219A7894FFCFF894FFCFE6
:02012A000100D2
:00000001FF
